:020000001628C0
:0E0006008312031321088A00200882000800DC
:1000140003208A110A128000840AA00A0319A10A83
:08002400F003031D0A28080087
:10002C003F3083120313A2000630A3005B30A40000
:10003C004F30A5006630A6006D30A7007D30A800BB
:10004C000730A9007F30AA006F30AB000130831657
:10005C00880086018312860183168701831287012B
:10006C000818392836280A30F1007108003C0318AA
:10007C005528093087007108223E8400000886004C
:10008C001530FB004B30FC00BE30FD00FD0B4C2846
:10009C00FC0B4C28FB0B4C280000F1033B280A30CE
:1000AC00F1007108003C03187128063087007108B4
:1000BC00223E8400000886001530FB004B30FC000B
:1000CC00BE30FD00FD0B6828FC0B6828FB0B682874
:0A00DC000000F103572839287228AC
:02400E004A2F37
:00000001FF
